:100000000C94FE000C9426010C9426010C94900490
:100010000C9490040C9490040C9426010C942601EA
:100020000C9426010C9426010C9426010C942601B4
:100030000C9426010C9426010C9426010C942601A4
:100040000C9446040C9426010C9480030C945A03DF
:100050000C9426010C9426010C9426010C94260184
:100060000C9426010C9426010000000024002700B7
:100070002A0000000008000201000003040700003D
:1000800000000000000000000000250028002B00F8
:1000900000000000230026002900040404040404D6
:1000A0000404020202020202030303030303010227
:1000B00004081020408001020408102001020408F6
:1000C00010204E414E494E495459494E46CDCCCC54
:1000D0003D0AD7233C17B7D13877CC2B329595E61C
:1000E000241FB14F0A000020410000C84200401CFC
:1000F0004620BCBE4CCA1B0E5AAEC59D7400407A49
:1001000010F35A00A0724E18090010A5D4E80000A0
:10011000E87648170000E40B54020000CA9A3B003E
:100120000000E1F505000080969800000040420FB5
:10013000000000A08601000000102700000000E879
:1001400003000000006400000000000A000000003E
:10015000000100000000002C76D888DC674F0823DF
:10016000DFC1DFAE59E1B1B796E5E3E453C63AE645
:1001700051997696E8E6C28426EB898C9B62ED4025
:100180007C6FFCEFBC9C9F40F2BAA56FA5F4900574
:100190005A2AF75C936B6CF9676DC11BFCE0E40DA8
:1001A00047FEF520E6B500D0ED902E03009435779C
:1001B000050080841E080000204E0A000000C80CC4
:1001C000333333330F986E12831141EF8D2114892D
:1001D0003BE65516CFFEE6DB18D1844B381BF77C87
:1001E0001D901DA4BBE424203284725E228100C9CC
:1001F000F124ECA1E53D2700D60F9E0E11241FBE71
:10020000CFEFD8E0DEBFCDBF13E0A0E0B1E0E0E982
:10021000F2E302C005900D92A23CB107D9F725E0A8
:10022000A2ECB3E001C01D92A532B207E1F710E0E5
:10023000CDEFD0E004C02197FE010E94FB10CC3F1F
:10024000D107C9F70E94C60E0C943B190C9400000C
:10025000CF92DF92EF92FF920F931F93CF93DF9392
:100260006C017A018B01C0E0D0E0CE15DF0589F08A
:10027000D8016D918D01D601ED91FC910190F08135
:10028000E02DC6010995892B11F47E0102C021964B
:10029000ECCFC701DF91CF911F910F91FF90EF90AD
:1002A000DF90CF900895FC01918D828D981761F0B9
:1002B000828DDF01A80FB11D5D968C91928D9F5F9D
:1002C0009F73928F90E008958FEF9FEF0895FC0148
:1002D000918D828D981731F0828DE80FF11D858DFB
:1002E00090E008958FEF9FEF0895FC01918D228D8E
:1002F000892F90E0805C9F4F821B91098F73992713
:10030000089581E594E00E94750121E0892B09F4AC
:1003100020E0822F0895FC01848DDF01A80FB11D1C
:10032000A35ABF4F2C91848D90E001968F7399272B
:10033000848FA689B7892C93A089B1898C91806418
:100340008C93938D848D981306C00288F389E02DD9
:1003500080818F7D80830895EF92FF920F931F938A
:10036000CF93DF93EC0181E0888F9B8D8C8D981368
:1003700005C0E889F989808185FD24C0F62E0B8DA2
:1003800010E00F5F1F4F0F731127E02E8C8DE812C6
:100390000CC00FB607FCFACFE889F989808185FF88
:1003A000F5CFCE010E948B01F1CF8B8DFE01E80FBE
:1003B000F11DE35AFF4FF0820B8FEA89FB898081A0
:1003C000806207C0EE89FF896083E889F9898081AE
:1003D0008064808381E090E0DF91CF911F910F9145
:1003E000FF90EF900895CF93DF93EC01888D8823E1
:1003F000C9F0EA89FB89808185FD05C0A889B98992
:100400008C9186FD0FC00FB607FCF5CF808185FF6C
:10041000F2CFA889B9898C9185FFEDCFCE010E94DA
:100420008B01E7CFDF91CF91089580E090E0892B99
:1004300029F00E94810181110C94000008953FB7BA
:10044000F8948091470490914804A0914904B09198
:100450004A0426B5A89B05C02F3F19F00196A11D9F
:10046000B11D3FBFBA2FA92F982F8827820F911D4A
:10047000A11DB11DBC01CD0142E0660F771F881F91
:10048000991F4A95D1F708958F929F92AF92BF928C
:10049000CF92DF92EF92FF926B017C010E941F02CC
:1004A0004B015C01C114D104E104F104F1F00E949C
:1004B0001F02DC01CB0188199909AA09BB09883EF2
:1004C0009340A105B10570F321E0C21AD108E108FB
:1004D000F10888EE880E83E0981EA11CB11CC1149F
:1004E000D104E104F10419F7DDCFFF90EF90DF9024
:1004F000CF90BF90AF909F908F90089520914D0422
:1005000030914E042817390771F490914B04809173
:100510004C04981741F0E0914B04F0E0EE53FC4F8F
:10052000808190E008958FEF9FEF089508951F93C5
:10053000CF93DF93DC015C962D913C915D97211563
:10054000310539F481E090E013969C938E931297D5
:100550003DC05196ED91FC91529750969C915097C9
:10056000892F80951FB75E964C915E9741FB772748
:1005700070F941FD6095F8944081772311F0492B83
:1005800001C048234083E9012197F1F748E05081F9
:1005900060FF02C0592B01C058235083E901219705
:1005A000F1F76695415099F7772321F090818923DF
:1005B000808303C08081982B90831FBF5C968D91B0
:1005C0009C915D970197F1F721E030E0C901DF913F
:1005D000CF911F91089520914D0430914E0428171A
:1005E000390771F480914C0420914B0490E08058BD
:1005F0009F4F821B910960E870E00E94921008955D
:1006000080E090E0089520914D0430914E04281729
:100610003907B9F490914B0480914C04981789F0F4
:10062000E0914B04F0E0EE53FC4F808120914B04AD
:1006300030E02F5F3F4F2F77332720934B0490E01C
:1006400008958FEF9FEF08950E946F136115710554
:1006500079F0FB0101900020E9F73197AF01461BCB
:10066000570BDC01ED91FC910280F381E02D0994A0
:1006700080E090E008950F931F93CF93DF93EC01F8
:10068000E881F981DB0114964D915C9115976D918C
:100690007C910280F381E02D09958C0166E572E082
:1006A000CE010E942603800F911FDF91CF911F91F1
:1006B0000F9108951F920F920FB60F9211242F934E
:1006C0003F934F935F936F937F938F939F93AF93DA
:1006D000BF93EF93FF9381E594E00E948B01FF911C
:1006E000EF91BF91AF919F918F917F916F915F91AA
:1006F0004F913F912F910F900FBE0F901F90189523
:100700001F920F920FB60F9211242F938F939F93E6
:10071000EF93FF93E0916104F09162048081E09196
:100720006704F091680482FD12C0908180916A0490
:100730008F5F8F7320916B04821751F0E0916A04F0
:10074000F0E0EF5AFB4F958F80936A0401C08081DF
:10075000FF91EF919F918F912F910F900FBE0F906E
:100760001F90189590E0FC01EE58FF4F3491FC016A
:10077000E255FF4F2491FC01E656FF4FE491EE2332
:1007800009F43BC0332339F1333091F038F4313080
:10079000A9F0323001F584B58F7D12C0373091F069
:1007A0003830A1F03430B9F4809180008F7D03C0DF
:1007B000809180008F77809380000DC084B58F7703
:1007C00084BD09C08091B0008F7703C08091B000D4
:1007D0008F7D8093B000F0E0EE0FFF1FEA57FF4FD0
:1007E000A591B4918FB7F894EC91611103C0209555
:1007F0002E2301C02E2B2C938FBF0895CF93DF9310
:1008000090E0FC01E255FF4F2491FC01E656FF4FBA
:100810008491882361F190E0880F991FFC01E859C9
:10082000FF4FC591D491FC01EA57FF4FA591B491B8
:10083000611109C09FB7F89488812095822388832D
:10084000EC912E230BC0623061F49FB7F89438818D
:10085000822F809583238883EC912E2B2C939FBF2E
:1008600006C08FB7F894E8812E2B28838FBFDF91C5
:10087000CF9108952FB7F894609143047091440488
:1008800080914504909146042FBF08951F920F92C6
:100890000FB60F9211242F933F938F939F93AF9393
:1008A000BF938091430490914404A0914504B0917A
:1008B00046043091420423E0230F2D3720F40196A3
:1008C000A11DB11D05C026E8230F0296A11DB11D73
:1008D000209342048093430490934404A0934504DE
:1008E000B09346048091470490914804A091490434
:1008F000B0914A040196A11DB11D809347049093C5
:100900004804A0934904B0934A04BF91AF919F91CA
:100910008F913F912F910F900FBE0F901F901895C0
:100920001F920F920FB60F9211242F933F934F9364
:100930005F936F937F938F939F93AF93BF93EF9347
:10094000FF93E0914D04F0914E04309709F451C0AB
:10095000968DA685B785858591FF04C09C918923D6
:1009600029F447C09C91892309F043C0A389B48925
:100970009C918589809589238C9386899789019795
:10098000F1F7608D718DA685B785558538E020E03B
:10099000CB010197F1F7822F90E095958795282F4D
:1009A0004C91452309F02068315091F7868D81FDE7
:1009B000209580914C0490E001968F779927309193
:1009C0004B04381749F0A0914C04B0E0AE53BC4F33
:1009D0002C9380934C0403C0868D8160868F828D1A
:1009E000938D0197F1F7A389B4899C918589892B0F
:1009F0008C93FF91EF91BF91AF919F918F917F91D8
:100A00006F915F914F913F912F910F900FBE0F907B
:100A10001F901895CF92DF92EF92FF920F931F9342
:100A2000CF93DF93CDB7DEB7C155D1090FB6F89498
:100A3000DEBF0FBECDBF68E572E0CE01805C9F4F88
:100A40000E94910B80E095E00E94EB02892B09F453
:100A5000ACC3CE0101960E94A60BBE016F5F7F4F13
:100A60008EEE94E00E944A0BCE0101960E94830B09
:100A700068E271E0CE0101960E94910BBE016F5FAA
:100A80007F4F8EEE94E00E94D50AF82ECE0101969B
:100A90000E94830BFF2009F481C36EEE74E0CE0147
:100AA000805C9F4F0E94330B6EEE74E0CE01019686
:100AB0000E94880B42E050E0BE016F5F7F4FCE0185
:100AC000CA960E94120CCE0101960E94830B22E06E
:100AD00030E040E050E0BE01665C7F4FCE01C4963E
:100AE0000E94CC0B42E050E060E070E0CE01CA967C
:100AF0000E94A30A8AAD9BAD009719F00E94DB13F8
:100B000003C060E070E0CB011FA61EA619AA18AAB8
:100B10001BAA1AAA20E030E040E752E40E9401112B
:100B20008E010F5F1F4F26E048E00E94BB13BC01FF
:100B3000CE018E960E941C0B69E373E0C8010E94EF
:100B4000910BBE01625D7F4FC8010E94090BBC0181
:100B500081E594E00E943B03C8010E94830B41E0C1
:100B600050E060E070E0CE018E960E94A30ABE01C4
:100B70006C5C7F4FC8010E94880BBE01625D7F4F95
:100B8000C8010E94090BBC01CE01CA960E94330B1A
:100B9000C8010E94830BBE01665C7F4FCE01889620
:100BA0000E94880B6FE271E0C8010E94910BBE01A8
:100BB000665C7F4FC8010E94090BBC0181E594E08F
:100BC0000E943B03C8010E94830BBE01605C7F4F03
:100BD000C8010E94880B44E050E0B801CE01829623
:100BE0000E94120CBE016E5D7F4FCE01CA960E941C
:100BF0004A0BCE0182960E94830BC8010E94830B90
:100C000064E371E0C8010E94910BBE01665C7F4FF6
:100C1000C8010E94090BBC0181E594E00E943B03DE
:100C2000C8010E94830B23E030E040E050E0BE01A9
:100C3000665C7F4FC8010E94CC0BB801CE01C49600
:100C40000E944A0BC8010E94830B43E050E060E021
:100C500070E0CE01CA960E94A30A8AAD9BAD0097B0
:100C600019F00E94DB1303C060E070E0CB0120E0CC
:100C700030E040E752E40E9401116B017C011BA2AD
:100C80001AA21DA21CA21FA21EA28E010F5F1F4F3F
:100C900026E048E00E94BB13BC01CE0182960E9470
:100CA0001C0BBE016E5D7F4FCE018E960E944A0BDB
:100CB000CE0182960E94830B69E373E0C8010E9413
:100CC000910BBE01625D7F4FC8010E94090BBC0100
:100CD00081E594E00E943B03C8010E94830B41E040
:100CE00050E060E070E0CE018E960E94A30ABE0143
:100CF0006C5C7F4FC8010E94880BBE01625D7F4F14
:100D0000C8010E94090BBC01CE01CA960E94330B98
:100D1000C8010E94830B6EE273E0C8010E94910B30
:100D2000BE01665C7F4FC8010E94090BBC0181E5D2
:100D300094E00E943B03C8010E94830BBE01685DE2
:100D40007F4FC8010E94880B6CE371E0C8010E94CC
:100D5000F00ABE01665C7F4F0E94090BBC0181E571
:100D600094E00E943B03C8010E94830B8EAD9FADAF
:100D7000892B79F0EAADFBAD309759F08081803353
:100D800041F441E050E060E070E0CE01CA960E947C
:100D9000A30A20E030E0A901C701B6010E94731147
:100DA00018160CF0EBC180915004813009F0BDC0E1
:100DB000BE01685D7F4FCE018A5B9F4F0E94880B0A
:100DC0006CE371E0CE018A5B9F4F0E94F00ABE0186
:100DD000665C7F4F0E94090BBC01CE01845B9F4F74
:100DE0000E94880B6EE371E0CE0101960E94910B88
:100DF00068E873E1CE0101960E948C0CCE01019649
:100E00000E94830B64EF71E080E090E00E94440256
:100E100068E471E0CE0182960E94910B6AEF74E063
:100E2000CE0182960E94090BBC01CE0101960E9460
:100E3000880B60ED77E0CE0101960E948C0CCE010C
:100E400001960E94830BCE0182960E94830B64E67A
:100E500070E080E090E00E944402BE01645B7F4F3E
:100E6000CE0101960E94880B60ED77E0CE010196DD
:100E70000E948C0CCE0101960E94830B68EC70E0FE
:100E800080E090E00E944402E0910005F0910105AD
:100E90000190F081E02D6AE180E095E0099566E53A
:100EA00072E080E095E00E94260364E670E080E056
:100EB00090E00E94440268E572E0CE0101960E9433
:100EC000910B68EE73E0CE0101960E948C0CCE016E
:100ED00001960E94830B64E670E080E090E00E943F
:100EE00044021092500461E571E081E594E00E94B3
:100EF000780C62E671E081E594E00E94780C60ED88
:100F000077E080E090E00E944402CE01845B9F4F36
:100F10000E94830BCE018A5B9F4F0E94830B60EA85
:100F20007FE080E090E00E94440280914F0488239B
:100F300009F4E4C0BE01665C7F4FCE01845B9F4F25
:100F40000E94880BBE01685D7F4FCE018A5B9F4F78
:100F50000E94880B60ED77E080E090E00E94440200
:100F6000BE016A5B7F4FCE0101960E94880B66E747
:100F700071E0CE0101960E94F00ABE01645B7F4FD2
:100F80000E94090BBC0181E594E00E943B03CE0165
:100F900001960E94830B68E771E0CE0101960E94E2
:100FA000910B68EB7BE0CE0101960E948C0CCE0188
:100FB00001960E94830B63E871E0CE0101960E94C6
:100FC000910B68EE73E0CE0101960E948C0CCE016D
:100FD00001960E94830B60E971E0CE0101960E94A8
:100FE000910B68EE73E0CE0101960E948C0CCE014D
:100FF00001960E94830B6CEA71E0CE0101960E947B
:10100000910B68EE73E0CE0101960E948C0CCE012C
:1010100001960E94830B6BEB71E0CE0101960E945A
:10102000910B68EB7BE0CE0101960E948C0CCE0107
:1010300001960E94830B6EED71E0CE0101960E9435
:10104000910B68E873E1CE0101960E948C0CCE01F1
:1010500001960E94830B69EE71E0CE0101960E9419
:10106000910B68EE73E0CE0101960E948C0CCE01CC
:1010700001960E94830B6AEF71E0CE0182960E9476
:10108000910BBE016A5B7F4FCE0182960E94090BD5
:101090006DE272E00E94F00ABE01645B7F4F0E9425
:1010A000090B66E572E00E94F00ABC01CE010196D0
:1010B0000E94880B64E670E0CE0101960E948C0CC1
:1010C000CE0101960E94830BCE0182960E94830B73
:1010D00068E57BE180E090E00E944402CE018A5BFB
:1010E0009F4F0E94830BCE01845B9F4F0E94830B16
:1010F00060EA7FE080E090E00E94440261E372E0F9
:10110000CE0101960E94910B60ED77E0CE01019631
:101110000E948C0CCE0101960E94830B6DE372E05D
:10112000CE0101960E94910B60ED77E0CE01019611
:101130000E948C0CCE0101960E94830B69E472E040
:10114000CE0101960E94910B60E177E2CE010196FB
:101150000E948C0CCE0101960E94830B69E572E01F
:10116000CE0101960E94910B60E177E2CE010196DB
:101170000E948C0CCE0101960E94830BCE018896B2
:101180000E94830BCE018E960E94830BCE01C496E3
:101190000E94830BCE01CA960E94830B6EEE74E010
:1011A00081E594E00E943B034DCCCE01805C9F4FD3
:1011B0000E94830BCF5ADF4F0FB6F894DEBF0FBEED
:1011C000CDBFDF91CF911F910F91FF90EF90DF90F6
:1011D000CF900895DC0114962D913C911597232B07
:1011E00041F0ED91FC9181E09081992319F080E02C
:1011F000089581E0089508950F931F930E943A0483
:10120000609308057093090580930A0590930B0578
:10121000E0910005F09101050680F781E02D80E066
:1012200095E0099597FF1FC00E943A0400910805B8
:101230001091090520910A0530910B05DC01CB01C5
:10124000801B910BA20BB30B0091040510910505B7
:10125000209106053091070580179107A207B30773
:10126000B8F28FEF9FEF1F910F910895CF93DF9307
:10127000FC0124813581232B71F0FB01DC01CD9130
:10128000DC9160817181CE010E94A113009719F059
:101290008C1B9D0B02C08FEF9FEFDF91CF910895C4
:1012A000CF93DF93EC0188819981009711F00E9420
:1012B0000D12198218821D821C821B821A82DF91F4
:1012C000CF9108950F931F93CF93DF93EC01888103
:1012D0009981009729F02A813B812617370788F4E6
:1012E0008B016F5F7F4F0E94A512009761F0998379
:1012F00088831B830A832C813D81232B11F4FC01FD
:10130000108281E001C080E0DF91CF911F910F91A9
:101310000895EF92FF920F931F93CF93DF93FC01F9
:10132000248135816115710511F480E019C04115E2
:101330005105A9F07B01EC018A01020F131FB801CE
:101340000E946209882389F3288139818C819D81DB
:10135000B701820F931F0E947D131D830C8381E0D0
:10136000DF91CF911F910F91FF90EF900895EF9231
:10137000FF920F931F93CF93DF93EC017B018A01C0
:10138000BA010E946209811104C0CE010E94500975
:1013900007C01D830C83B701888199810E947D134A
:1013A000CE01DF91CF911F910F91FF90EF900895A3
:1013B0009B01AC0110921B0510921A0510921905A1
:1013C00010921805109217051092160560E079E04A
:1013D0008DE390E00E94A610F9012430310518F049
:1013E000C901039702C081E090E090931D058093AE
:1013F0001C0590910C05963108F075C0B9017695E1
:1014000067956431710518F06351710902C061E09C
:1014100070E07093170560931605369720F0B901B8
:101420006550710902C061E070E070931905609326
:101430001805B901660F771F260F371F36952795B8
:10144000369527952D30310518F02C50310902C002
:1014500021E030E030931B0520931A0520916800AD
:10146000983050F031E09E3008F430E081E001C067
:10147000880F3A95EAF701C084E0822B80936800D8
:10148000983038F09E3040F0963148F020E030E05F
:1014900008C02DE630E005C02BE630E002C02CE6A7
:1014A00030E03093140520931305983030F481E038
:1014B00001C0880F9A95EAF70EC0292F30E09E30C0
:1014C00018F42850310902C02E50310981E001C0C2
:1014D000880F2A95EAF78093150580911C05909155
:1014E0001D050197F1F780911A0590911B05892B35
:1014F00049F1E0914D04F0914E0485E0E030F807A9
:1015000009F1309739F0A389B4899C918589809538
:1015100089238C9380911E058E7F80931E051092E7
:101520004C0410924B0480E095E090934E0480931D
:101530004D04E0911305F0911405908180911505FB
:10154000892B80830895CF93DF93DC011496ED916E
:10155000FC9115976E177F0728F54115510511F17C
:101560009F01261B370B4217530708F49A01DB0132
:10157000EC0188819981E21BF30BFD83EC83AF01C1
:10158000461B570B260F371FBC01620F731F8A0FB4
:101590009B1F0E949213E881F9818C819D81E80F45
:1015A000F91F1082DF91CF910895FB01448155818D
:1015B000FC01248135812417350778F080819181E1
:1015C000009759F0FB01608171816115710529F067
:1015D0000E94841321E0892B09F020E0822F0895D6
:1015E000CF93DF93EC016115710561F0FB01019070
:1015F0000020E9F73197AF01461B570B0E9489097C
:10160000811103C0CE010E945009CE01DF91CF911C
:101610000895CF93DF93EC01FB01448155816081F4
:1016200071810E948909811103C0CE010E94500975
:10163000CE01DF91CF910895CF93DF93EC01611537
:10164000710559F0FB0101900020E9F73197AF01D6
:10165000461B570B0E94B70902C00E945009CE01D9
:10166000DF91CF910895CF93DF93EC01FB018617B3
:10167000970761F0608171816115710529F04481DE
:1016800055810E94B70902C00E945009CE01DF9126
:10169000CF9108950F931F93CF93DF938C01EB01AC
:1016A000FC01808191810097B1F068817981611599
:1016B000710579F0428153812C813D814217530796
:1016C00040F00E947D138C819D81F8019583848375
:1016D00013C00E940D1288819981F8019183808343
:1016E0008A819B81938382838C819D81958384836E
:1016F000198218821B821A821D821C82DF91CF916F
:101700001F910F910895FC01808191810C940D121D
:10171000FC011182108213821282158214820C94B1
:10172000330BFC0111821082138212821582148203
:101730006115710551F0FB0101900020E9F7319727
:10174000AF01461B570B0C94B70908950F931F93D5
:10175000CF93DF9300D0CDB7DEB78C0168E572E0A0
:101760000E94910B0E94FC0897FD0EC08A309105E3
:1017700059F089831A8241E050E0BE016F5F7F4FCC
:10178000C8010E948909EECFC8010F900F90DF9128
:10179000CF911F910F910895BF92CF92DF92EF9258
:1017A000FF920F931F93CF93DF937C016B018A010C
:1017B000E9012417350720F4812F8901C42FD82F80
:1017C00068E572E0C7010E94910BD60114968D91D5
:1017D0009C91159708171907D0F48C179D0708F4EA
:1017E000EC01D601ED91FC911197EC0FFD1FB0803B
:1017F00010824D915C91BA01600F711FC7010E9468
:101800001C0BD601ED91FC91EC0FFD1FB082C701BE
:10181000DF91CF911F910F91FF90EF90DF90CF90CC
:10182000BF9008956F927F928F929F92AF92BF92D6
:10183000CF92DF92EF92FF920F931F93CF93DF939C
:101840008C016A01EB01AC80BD80C5010197E0E02D
:10185000F0E02FEF3FEF40E050E0A0E0B0E09E2E40
:101860008F2E8E179F0764F1CA16DB062CF1EF014D
:1018700021967E01EA15FB0560F4EB016880798012
:101880006114710431F0E301CE0FDF1FC881CC3247
:1018900031F0E817F90719F0922E832E09C011963E
:1018A000A9014F5F5F4FE817F90711F49E2C8F2CA9
:1018B000F701292D382DD3CFC8010E94CC0B08C0C9
:1018C000CA16DB06CCF368E572E0C8010E94910BF2
:1018D000C801DF91CF911F910F91FF90EF90DF90A2
:1018E000CF90BF90AF909F908F907F906F90089512
:1018F0000F931F93CF93DF93EC010E9426038C017B
:1019000066E572E0CE010E942603800F911FDF91F1
:10191000CF911F910F910895CF92DF92EF92FF9296
:101920000F931F93CF93DF93CDB7DEB7AA970FB670
:10193000F894DEBF0FBECDBF8C016B0168E572E08D
:10194000CE0185960E94910B68E572E0CE014F961C
:101950000E94910B68E572E0CE0149960E94910BBE
:10196000B80180E095E00E943B030E943A0410E039
:101970000D2C000CEE08FF08C60ED71EE81EF91E3F
:101980000E943A046C157D058E059F0508F076C00F
:1019900080E095E00E94EB02892BE9F1CE010196EF
:1019A0000E94A60BBE016F5F7F4FCE0185960E94FD
:1019B0004A0BCE0101960E94830BBE016B5D7F4FE7
:1019C00081E594E00E943B03113041F4BE016B5D60
:1019D0007F4FCE0149960E94330B10E06AE173E01D
:1019E000CE0101960E94910BBE016F5F7F4FCE0129
:1019F00085960E94D50A082FCE0101960E94830B7E
:101A0000002331F2BE016B5D7F4FCE014F960E94E5
:101A1000330B1F5FBDCFCE014F960E94EA088111A4
:101A2000AFCF6FE173E0CE0101960E94910BBE0132
:101A3000615E7F4FCE0101960E94090BBC0181E5DA
:101A400094E00E943B03CE0101960E94830B67E263
:101A500073E0CE0101960E94910BBE01675E7F4F3D
:101A6000CE0101960E94090BBC0181E594E00E9421
:101A70003B03CE0101960E94830B82CFCE014F968D
:101A80000E94EA0881113FC1BE01675E7F4FCE010F
:101A90000D960E94880BBE01615E7F4FCE0143967A
:101AA0000E94880B63E373E0CE0101960E94910BC4
:101AB000BE016D5E7F4FCE0101960E94090BBC01F5
:101AC00081E594E00E943B03CE0101960E94830BC6
:101AD000BE016D5E7F4FCE0101960E94880B40E0F3
:101AE00050E0BE016F5F7F4FCE0107960E94120C3F
:101AF000CE0101960E94830B47E050E060E070E069
:101B0000CE0107960E94A30A6B857C8561507109FE
:101B100041E050E0CE0107960E94A30A6EE373E015
:101B2000CE0101960E94910B6AEF74E0CE010196FE
:101B30000E94090BBC0181E594E00E943B03CE01A9
:101B400001960E94830BCE0107960E94EA0881113C
:101B500007C0BE01695F7F4F8AEF94E00E94330B9C
:101B60006BE473E0CE0101960E94910BBE016F5FA2
:101B70007F4FCE010D960E9436097C01CE01019661
:101B80000E94830BEF20E09459F081E08093500491
:101B90006FE473E081E594E00E94780C0E940A05EE
:101BA00061E673E0CE0101960E94910BBE016F5F6A
:101BB0007F4FCE010D960E9436097C01CE01019621
:101BC0000E94830BEF20E09459F081E080934F0452
:101BD00068E673E081E594E00E94780C0E940A05B3
:101BE0006CE773E0CE0101960E94910BBE016F5F1E
:101BF0007F4FCE010D960E9436097C01CE010196E1
:101C00000E94830BEF20E09451F064E873E081E5DB
:101C100094E00E94780C10924F040E940A0569E932
:101C200073E0CE0101960E94910BBE016F5F7F4F62
:101C3000CE010D960E9436097C01CE0101960E94CC
:101C4000830BEF20E094F9F060EA73E0CE01019697
:101C50000E94910BBE016F5F7F4FCE010D960E94D7
:101C600036097C01CE0101960E94830BEF20E0949F
:101C700051F065EA73E081E594E00E94780C61E040
:101C80008EE00E94B20360EB73E0CE0101960E94E9
:101C9000910BBE016F5F7F4FCE010D960E943609FA
:101CA0007C01CE0101960E94830BEF20E094F9F0B5
:101CB00060EA73E0CE0101960E94910BBE016F5F56
:101CC0007F4FCE010D960E9436097C01CE01019610
:101CD0000E94830BEF20E09451F068EB73E081E504
:101CE00094E00E94780C60E08EE00E94B203CE0186
:101CF00007960E94830BCE0143960E94830BCE0170
:101D00000D960E94830BCE0149960E94830BCE0153
:101D10004F960E94830BCE0185960E94830BAA9654
:101D20000FB6F894DEBF0FBECDBFDF91CF911F91EC
:101D30000F91FF90EF90DF90CF9008958EEE94E09A
:101D40000E94830B84EF94E00E94830B8AEF94E05F
:101D50000E94830B8CE191E0909301058093000534
:101D600080914D0490914E048050954071F4E09123
:101D70001305F091140590818091150580958923B4
:101D8000808310924E0410924D040895CF93DF93F8
:101D900000D000D000D0CDB7DEB7789484B5826093
:101DA00084BD84B5816084BD85B5826085BD85B5FF
:101DB000816085BD80916E00816080936E0010927D
:101DC00081008091810082608093810080918100F8
:101DD0008160809381008091800081608093800089
:101DE0008091B10084608093B1008091B0008160E7
:101DF0008093B00080917A00846080937A00809113
:101E00007A00826080937A0080917A00816080936A
:101E10007A0080917A00806880937A001092C100E5
:101E2000E0916104F091620482E08083E0915D04BE
:101E3000F0915E041082E0915F04F091600480E113
:101E4000808310926904E0916504F091660486E055
:101E50008083E0916304F0916404808180618083D9
:101E6000E0916304F0916404808188608083E09154
:101E70006304F0916404808180688083E09163044E
:101E8000F091640480818F7D808360E072EC81E05A
:101E900090E00E94D80962E672E0CE0101960E94AD
:101EA000910B68E873E1CE0101960E948C0CCE0183
:101EB00001960E94830B62E672E0CE0101960E94B9
:101EC000910B68E873E1CE0101960E948C0CCE0163
:101ED00001960E94830B61E08EE00E94FE0362E6A1
:101EE00072E0CE0101960E94910B68E873E1CE0189
:101EF00001960E948C0CCE0101960E94830B60E833
:101F000075E280E090E00E94D80960ED77E080E023
:101F100090E00E9444026EE672E081E594E00E9447
:101F2000780C6BE772E0CE0101960E94910B68EB92
:101F30007BE0CE0101960E948C0CCE0101960E949E
:101F4000830B02E010E064E872E0CE0101960E948B
:101F5000910B68EE73E0CE0101960E948C0CCE01CD
:101F600001960E94830B6FE872E080E095E00E948A
:101F7000780C0130110519F001E010E0E4CF68E9B8
:101F800072E081E594E00E94780C62ED72E081E5F8
:101F900094E00E94780C68E972E081E594E00E9488
:101FA000780C0E940A050E941502FBCF109254047F
:101FB0001092530488EE93E0A0E0B0E080935504C3
:101FC00090935604A0935704B09358042CE031E04A
:101FD000309352042093510425EC30E030935E049A
:101FE00020935D0424EC30E03093600420935F0480
:101FF00020EC30E0309362042093610421EC30E067
:10200000309364042093630422EC30E03093660440
:102010002093650426EC30E0309368042093670435
:1020200010926A0410926B0410926C0410926D046A
:102030001092030510920205809304059093050504
:10204000A0930605B09307058CE191E090930105FC
:10205000809300051092170510921605109219052D
:102060001092180510921B0510921A0510921D056A
:1020700010921C0560911E056E7F6D7F60931E059A
:102080006695617081E0682789E00E94B20361E093
:1020900089E00E94FE03E7EBF0E0E491E093100595
:1020A000E3EAF0E0E491F0E0EE0FFF1FEA57FF4FA4
:1020B00085919491909312058093110560E088E0DA
:1020C0000E94FE0380911E0581FD04C061E088E04E
:1020D0000E94B20388E080930C05E6EBF0E0E49107
:1020E000E0930D05E2EAF0E0E491F0E0EE0FFF1F6F
:1020F000E057FF4F8591949190930F0580930E05C3
:102100006CE073E08AEF94E00E94910B68E572E066
:1021100084EF94E00E94910B68E572E08EEE94E00B
:102120000C94910B97FB072E16F4009407D077FDC3
:1021300009D00E94C51007FC05D03EF4909581950A
:102140009F4F0895709561957F4F0895052E97FBD9
:102150001EF400940E94BD1057FD07D00E94D910B4
:1021600007FC03D04EF40C94BD105095409530956B
:1021700021953F4F4F4F5F4F0895909580957095F3
:1021800061957F4F8F4F9F4F0895AA1BBB1B51E155
:1021900007C0AA1FBB1FA617B70710F0A61BB70BD7
:1021A000881F991F5A95A9F780959095BC01CD017C
:1021B0000895A1E21A2EAA1BBB1BFD010DC0AA1F88
:1021C000BB1FEE1FFF1FA217B307E407F50720F0A0
:1021D000A21BB30BE40BF50B661F771F881F991F1B
:1021E0001A9469F760957095809590959B01AC0164
:1021F000BD01CF010895EE0FFF1F0590F491E02D72
:1022000009940E9415110C94B0180E94A91858F056
:102210000E94A21840F029F45F3F29F00C9499180D
:1022200051110C94E4180C949F180E94C11868F383
:102230009923B1F3552391F3951B550BBB27AA277F
:1022400062177307840738F09F5F5F4F220F331FB9
:10225000441FAA1FA9F335D00E2E3AF0E0E832D081
:1022600091505040E695001CCAF72BD0FE2F29D084
:10227000660F771F881FBB1F261737074807AB0756
:10228000B0E809F0BB0B802DBF01FF2793585F4FCB
:102290003AF09E3F510578F00C9499180C94E4188C
:1022A0005F3FE4F3983ED4F3869577956795B795AD
:1022B000F7959F5FC9F7880F911D9695879597F9B8
:1022C0000895E1E0660F771F881FBB1F6217730731
:1022D0008407BA0720F0621B730B840BBA0BEE1F46
:1022E00088F7E09508950E94051808F48FEF089587
:1022F000CF93DF938230910510F482E090E0E0917B
:102300002105F091220520E030E0C0E0D0E03097D8
:1023100011F14081518148175907C0F048175907FA
:1023200061F482819381209719F09B838A832BC06B
:10233000909322058093210526C02115310519F0BF
:102340004217530718F49A01BE01DF01EF01028022
:10235000F381E02DDCCF2115310509F1281B390B64
:102360002430310590F412968D919C91139761154C
:10237000710521F0FB019383828304C090932205B1
:1023800080932105FD01329644C0FD01E20FF31F49
:1023900081939193225031092D933C933AC020911F
:1023A0001F0530912005232B41F42091020130912B
:1023B00003013093200520931F05209100013091E7
:1023C00001012115310541F42DB73EB740910401BB
:1023D00050910501241B350BE0911F05F09120055C
:1023E000E217F307A0F42E1B3F0B2817390778F0EC
:1023F000AC014E5F5F4F2417350748F04E0F5F1F4B
:102400005093200540931F058193919302C0E0E013
:10241000F0E0CF01DF91CF9108950F931F93CF93F9
:10242000DF93009709F48CC0FC013297138212826B
:1024300000912105109122050115110581F42081DB
:102440003181820F931F20911F053091200528179D
:10245000390779F5F0932005E0931F0571C0D80185
:1024600040E050E0AE17BF0750F412962D913C911A
:102470001397AD012115310509F1D901F3CF9D0164
:10248000DA013383228360817181860F971F82175F
:10249000930769F4EC0128813981260F371F2E5FDD
:1024A0003F4F318320838A819B8193838283452B95
:1024B00029F4F0932205E093210542C01396FC9382
:1024C000EE931297ED01499159919E01240F351F0A
:1024D000E217F30771F480819181840F951F0296B2
:1024E00011969C938E938281938113969C938E93E5
:1024F0001297E0E0F0E0D80112968D919C9113972D
:10250000009719F0F8018C01F6CF8D919C919801FC
:102510002E5F3F4F820F931F20911F0530912005A2
:102520002817390769F4309729F410922205109280
:10253000210502C0138212821093200500931F050B
:10254000DF91CF911F910F910895A0E0B0E0EBEAE9
:10255000F2E10C94F918EC01009721F4CB010E94F0
:102560007811B8C0FC01E60FF71F9C012250310919
:10257000E217F30708F4ACC0D9010D911C91119733
:1025800006171707B0F00530110508F49FC0C80101
:1025900004978617970708F499C002501109061B83
:1025A000170B019311936D937C93CF010E940D1231
:1025B0008DC05B01A01AB10A4C01800E911EA09142
:1025C0002105B091220540E050E0E12CF12C10975C
:1025D00009F44AC0A815B905D1F56D907C90119702
:1025E000630182E0C80ED11CCA14DB0480F1A30190
:1025F0004A195B096A0182E0C80ED11C1296BC9090
:1026000012971396AC91B5E0CB16D10440F0B2828C
:10261000A38351834083D9016D937C930AC00E5FDD
:102620001F4FC301800F911FF90191838083EB2D10
:10263000FA2FE114F10431F0D7011396FC93EE93D5
:10264000129744C0F0932205E09321053FC08D917D
:102650009C9111974817590708F4AC017D01129617
:102660000D90BC91A02DB3CF80911F0590912005B6
:1026700088159905E1F446175707C8F480910001C1
:1026800090910101009741F48DB79EB740910401EC
:1026900050910501841B950BE817F907C8F4F093D6
:1026A0002005E0931F05F901718360830FC0CB0102
:1026B0000E9478117C01009759F0A801BE010E9488
:1026C0007413CE010E940D12C70104C0CE0102C0D6
:1026D00080E090E0CDB7DEB7EEE00C94151981E014
:1026E00090E0F8940C943B19FB01DC0102C00190CE
:1026F0000D9241505040D8F70895FB01DC01019044
:102700000D920020E1F70895FB01DC01415050409B
:1027100030F08D910190801919F40020B9F7881BD1
:10272000990B0895FB01DC014150504048F00190A5
:102730000D920020C9F701C01D9241505040E0F7B2
:102740000895FB0151915523A9F0BF01DC014D9182
:1027500045174111E1F759F4CD010190002049F0EE
:102760004D9140154111C9F3FB014111EFCF81E0BB
:1027700090E001970895EF920F931F93CF93DF930B
:10278000E80147FD02C034E001C034E1E42F440F0A
:10279000FF0BF7FF03C0F195E195F109E32E022F3E
:1027A0002E2FAE010E94DF13CE01DF91CF911F913A
:1027B0000F91EF900895662777270C946D154F922F
:1027C0005F926F927F929F92AF92BF92CF92DF9271
:1027D000EF92FF920F931F93CF93DF93CDB7DEB7A6
:1027E00029970FB6F894DEBF0FBECDBF6A01122F36
:1027F000B02E2BE3201720F0FF24F394F00E02C03C
:10280000BCE3FB2E0F2D27E0AE014F5F5F4F0E9410
:10281000CA16AC018981982F9970913031F0E1FC92
:1028200006C0E0FE06C090E205C09DE203C09BE248
:1028300001C090E0EE2DE07183FF3CC0911102C019
:1028400083E001C084E0811718F4212F281B01C008
:1028500020E0E1110BC0F601822F30E2882319F04D
:1028600031938150FBCFC20ED11C20E0992329F077
:10287000D6019C93F60131966F01C6010396E2FEE4
:102880000AC03EE4D6013C9341E411964C93119763
:1028900012963C9306C03EE6F601308341E6418342
:1028A0003283FC01322F40E2332309F442C04193CA
:1028B0003150FACF82FF44C0911102C083E001C0C1
:1028C00084E0811718F4212F281B01C020E0E111BA
:1028D0000BC0F601822F30E2882319F0319381502A
:1028E000FBCFC20ED11C20E0992329F0D6019C9386
:1028F000F60131966F01C6010396E2FE0BC039E482
:10290000D6013C933EE411963C93119736E412961F
:102910003C9307C039E6F60130833EE6318336E664
:102920003283FC01322F40E2332319F041933150BE
:10293000FBCFFC01E20FF11D10828EEF9FEFB7C0BD
:10294000F1E0911101C0F0E06F2F70E01416150650
:1029500024F49A012F5F3F4F02C021E030E0260FA0
:10296000371FBB2029F06B2D70E06F5F7F4F02C0D7
:1029700060E070E0260F371F612F70E026173707E1
:102980001CF4121B212F01C020E03E2D387159F498
:10299000D601322F60E2332319F06D933150FBCF13
:1029A000C20ED11C20E0FF2331F0D6019C93B6016A
:1029B0006F5F7F4F6B01E1110BC0F601922F30E387
:1029C000992319F031939150FBCFC20ED11C20E016
:1029D0009F2D940F3A81782F7071A72E84FF03C02A
:1029E000313309F49150191624F4993018F098E015
:1029F00001C091E0E42F852F57FF02C0E0E080E0A6
:102A00006E2F782FE0E0F0E0AEE29A2E3A01691ADC
:102A100071082A01461A570A0B2D10E011950195ED
:102A200011096F3F8FEF780729F4D6019C92C601F8
:102A300001966C014617570784F0661677066CF40A
:102A40007F01E40CF51CA1E0B0E0AC0FBD1FEA0E65
:102A5000FB1ED7011196BC9002C090E3B92E6150C5
:102A600071093196C60101967C016017710724F047
:102A7000D601BC926C01D5CF6417750741F436338B
:102A800020F4353321F4A11002C081E3B82EF60101
:102A9000B082F701822F90E2882319F09193815040
:102AA000FBCFF701E20FF11D108280E090E0299644
:102AB0000FB6F894DEBF0FBECDBFDF91CF911F914F
:102AC0000F91FF90EF90DF90CF90BF90AF909F90CD
:102AD0007F906F905F904F900895A0E0B0E0E3E7A3
:102AE000F5E10C94F918EC017B016115710519F001
:102AF000DB018D939C938E010F5F1F4F7880872D94
:102B000090E00E94A217892B11F0E801F4CFBDE2FA
:102B10007B1205C00F5F1F4F7980C1E008C0EBE258
:102B20007E1204C08E010E5F1F4F7980C0E06801E5
:102B3000F1E0CF1AD10843E050E06AEC70E0C60142
:102B40000E94AB17892BF1F4680122E0C20ED11C60
:102B500045E050E065EC70E0C6010E94AB17892BA0
:102B600021F4680187E0C80ED11CE114F10419F0CA
:102B7000D701CD92DC92C111FFC060E070E080E827
:102B80009FE703C143E050E062EC70E0C6010E94A1
:102B9000AB17892B51F4E114F10409F4F2C00E5F74
:102BA0001F4FF70111830083ECC0680160E070E003
:102BB000CB0100E010E0F601D0EDD70DDA3058F58A
:102BC0002C2F2260622E2C2F2870C2FF05C02111ED
:102BD00028C00F5F1F4F25C0222311F0015011099B
:102BE000A5E0B0E09B01AC010E94EA184B015C013A
:102BF000880C991CAA1CBB1CC501B4016D0F711D6A
:102C0000811D911D6839A9E97A078A07A9E19A0708
:102C100040F0C66005C0DE3F51F4C3FD44C0C8604B
:102C20006C2EBFEFCB1ADB0A7080C62DC4CF2D2FC0
:102C30002F7D2531C1F540814D3211F4C06106C0B0
:102C40004B3221F0319621E030E006C03296D601B9
:102C500011964C9122E030E0A0EDA40FAA3018F0BC
:102C6000E21BF30B20C040E050E04038BCE05B07C3
:102C70005CF49A01220F331F220F331F420F531FA0
:102C8000440F551F4A0F511D3196DF0111972C91AA
:102C9000A0EDA20FAA3048F3C4FF03C0519541959F
:102CA0005109040F151FC1FF07C0E114F10421F001
:102CB0003197D701ED93FC930E94C817C370C330BE
:102CC00019F06B017C0106C06B017C01F7FAF094EE
:102CD000F7F8F09420E030E0A901C701B6010E94A6
:102CE000C317882309F445C017FF06C01195019545
:102CF0001109C1EED0E002C0C9EFD0E05E01B8E139
:102D0000AB1AB1084601BE2DAF2D90E2E92EF12C91
:102D10000E151F0584F0FE012591359145915491C2
:102D2000B4018B2F9A2F0E9429184B01B82FA92F7D
:102D30000E191F09EDCF2497F594E794CA15DB050A
:102D400039F76401EB2EFA2E8E2D880F8F2D881FF8
:102D50008F3F49F020E030E0A901C701B6010E9491
:102D6000C317811106C082E290E0909324058093FE
:102D70002305C701B60109C060E070E080E89FEF5D
:102D800004C060E070E080EC9FE7CDB7DEB7EEE016
:102D90000C941519283008F027E03327DA01990F31
:102DA000311D87FD916000966105710539F432602F
:102DB0002E5F3D9330E32A95E1F708959F3F30F071
:102DC00080387105610509F03C5F3C5F3D939130AF
:102DD00008F08068911DDF93CF931F930F93FF92AC
:102DE000EF92192F987F9695E92F96959695E90F72
:102DF000FF27E95AFE4F99273327EE24FF24A70126
:102E0000E70105900894079428F4360FE71EF81E92
:102E1000491F511D660F771F881F991F0694A1F740
:102E20000590079428F4E70EF81E491F561FC11D90
:102E3000770F881F991F661F0694A1F705900794C6
:102E400028F4F80E491F561FC71FD11D880F991F60
:102E5000661F771F0694A1F70590079420F4490F89
:102E6000561FC71FD81F990F661F771F881F06940C
:102E7000A9F784911095177041F0D695C79557958D
:102E80004795F794E7941A95C1F7EDEFF0E0689451
:102E90001590159135916591959105907FE2739507
:102EA000E118F10A430B560BC90BD009C0F7E10C2E
:102EB000F11E431F561FC91FD01D7EF4703311F43D
:102EC0008A95E6CFE894015030F0080F0AF4002705
:102ED000021708F4202F2395022F7A3328F079E384
:102EE0007D932A95E9F710C07D932A9589F606947B
:102EF00097956795379517951794E118F10A430B45
:102F0000560BC90BD00998F023957E9173957A33AF
:102F100008F070E37C932013B8F77E9170617D9385
:102F200030F0839571E37D9370E32A95E1F71124E6
:102F3000EF90FF900F911F91CF91DF91992787FD1F
:102F40009095089591110C949618803219F089503B
:102F50008550C8F70895FB01DC014150504088F0CE
:102F60008D9181341CF08B350CF4805E6591613459
:102F70001CF06B350CF4605E861B611171F3990BCC
:102F80000895881BFCCF0E94051808F481E008957D
:102F9000E89409C097FB3EF49095809570956195F3
:102FA0007F4F8F4F9F4F9923A9F0F92F96E9BB27A9
:102FB0009395F695879577956795B795F111F8CF25
:102FC000FAF4BB0F11F460FF1BC06F5F7F4F8F4F90
:102FD0009F4F16C0882311F096E911C0772321F086
:102FE0009EE8872F762F05C0662371F096E8862F1E
:102FF00070E060E02AF09A95660F771F881FDAF775
:10300000880F9695879597F90895990F0008550FA1
:10301000AA0BE0E8FEEF16161706E807F907C0F05E
:1030200012161306E407F50798F0621B730B840B66
:10303000950B39F40A2661F0232B242B252B21F440
:1030400008950A2609F4A140A6958FEF811D811DE0
:1030500008950E943C180C94B0180E94A21838F0F1
:103060000E94A91820F0952311F00C9499180C9443
:103070009F1811240C94E4180E94C11870F3959FB6
:10308000C1F3950F50E0551F629FF001729FBB275F
:10309000F00DB11D639FAA27F00DB11DAA1F649FFB
:1030A0006627B00DA11D661F829F2227B00DA11DAE
:1030B000621F739FB00DA11D621F839FA00D611D34
:1030C000221F749F3327A00D611D231F849F600D55
:1030D000211D822F762F6A2F11249F5750409AF07E
:1030E000F1F088234AF0EE0FFF1FBB1F661F771F0A
:1030F000881F91505040A9F79E3F510580F00C94D5
:1031000099180C94E4185F3FE4F3983ED4F3869545
:1031100077956795B795F795E7959F5FC1F7FE2B74
:10312000880F911D9695879597F908959927882777
:10313000089597F99F6780E870E060E008959FEF39
:1031400080EC089500240A9416161706180609063E
:10315000089500240A94121613061406050608950D
:10316000092E0394000C11F4882352F0BB0F40F495
:10317000BF2B11F460FF04C06F5F7F4F8F4F9F4FD5
:10318000089557FD9058440F551F59F05F3F71F057
:103190004795880F97FB991F61F09F3F79F08795BE
:1031A0000895121613061406551FF2CF4695F1DF47
:1031B00008C0161617061806991FF1CF86957105D7
:1031C000610508940895E894BB2766277727CB010B
:1031D00097F908950E942C19A59F900DB49F900D0A
:1031E000A49F800D911D112408952F923F924F921C
:1031F0005F926F927F928F929F92AF92BF92CF9287
:10320000DF92EF92FF920F931F93CF93DF93CDB78F
:10321000DEB7CA1BDB0B0FB6F894DEBF0FBECDBF07
:1032200009942A88398848885F846E847D848C84D8
:103230009B84AA84B984C884DF80EE80FD800C81E1
:103240001B81AA81B981CE0FD11D0FB6F894DEBFC4
:103250000FBECDBFED010895A29FB001B39FC00185
:10326000A39F700D811D1124911DB29F700D811DB2
:103270001124911D089510E0CDEFD0E004C0FE01AF
:103280000E94FB102196CE3FD107C9F7F894FFCFDB
:103290000000250580000E0000000000AC012801A0
:1032A000750153016701F301000000009702280136
:1032B000EB0203037E0296022B47505352440074E4
:1032C0007474740075757575757575002C004154AE
:1032D0002B434D47463D310041542B434D47533D11
:1032E000004D4553534153676573656E7467676757
:1032F00067007979797979797979797979797979C9
:103300007979797979002F0041542B435245473F11
:103310000D0A0041542B43474154543D310D0A00DE
:1033200041542B434744434F4E543D312C22495086
:10333000222C22434D4E4554220D0A0041542B436A
:10334000474143543D312C310D0A0041542B434930
:103350005053544152543D22544350222C22746FF6
:10336000646F7A692E6972222C38300D0A0041543C
:103370002B43494653520D0A0041542B43495053A5
:10338000454E443D3230300D0A00474554206874A4
:1033900074703A2F2F746F646F7A692E69722F617F
:1033A00070692F6770732F47657447707344617439
:1033B000613F74696D653D3535266C3D0026613D84
:1033C0000041542B434D47463D310D0A0041542BDB
:1033D000435344483D310D0A0041542B434D474C63
:1033E0003D22414C4C220D0A0041542B4353510DB8
:1033F0000A0041542B4950523D3936303000413794
:1034000020506F776572204F4E210041542B47505A
:10341000533D300041542B47505352443D310041FD
:10342000542B4750533D31002A2A2A2A2A2A2A2A75
:103430002A2A2A2A2A2A2A2A2A2A2A2A2A2A2A2AEC
:103440002A2A2A2A2A2A2A2A2A2A2A2A2A2A2A2ADC
:103450002A2A2A2A2A2A2A2A2A2A2A2A2A2A2A2ACC
:103460002A002A2A496620646F6E6074206469739A
:10347000706C6179202747505320706F73697469AD
:103480006F6E696E672E2E2E2E272C706C65617301
:1034900065207265626F6F742E2A2A002B393839C5
:1034A000313337323636323532002B434D54006DCE
:1034B000657373616765006D6573736167657777C1
:1034C000777700696E666F6F6F6F6F6F6F007461F3
:1034D0007267657470686F6E653D006C6F63006C39
:1034E0006F636363636363636363636363636363A0
:1034F00000677072736F6E006770747373737373A9
:1035000073737373734F4E4E4E4E4E0067707273EB
:103510006F6666006770747373737373737373731A
:10352000734F464646464646006C6F636B6F6E00AF
:1035300031333732004C4F434B4F4E4E4E4E4E00C0
:103540006C6F636B6F6666004C4F434B4F4646464D
:02355000460033
:00000001FF
