:100000000C9466000C948E000C948E000C948E0060
:100010000C948E000C948E000C948E000C948E0028
:100020000C948E000C948E000C948E000C948E0018
:100030000C948E000C948E000C948E000C948E0008
:100040000C94D2020C948E000C94A0020C947A02B0
:100050000C948E000C948E000C948E000C948E00E8
:100060000C941C030C948E0088088B088E08910851
:10007000940897089A085508DB09DE09E109E409A4
:10008000E709EA0900000000250028002B0004040D
:100090000404040404040202020202020303030330
:1000A000030301020408102040800102040810200C
:1000B00001020408102000000008000201000003F3
:1000C00004070000000000000000ED0911241FBE1D
:1000D000CFEFD8E0DEBFCDBF12E0A0E0B1E0E2E2BA
:1000E000F9E102C005900D92AA3AB107D9F724E0D0
:1000F000AAEAB2E001C01D92A432B207E1F710E013
:10010000C6E6D0E004C02197FE010E94480AC53629
:10011000D107C9F70E9458070C948F0C0C9400006B
:10012000FC01918D828D981761F0828DDF01A80FFF
:10013000B11D5D968C91928D9F5F9F73928F90E021
:1001400008958FEF9FEF0895FC01918D828D981790
:1001500031F0828DE80FF11D858D90E008958FEFCD
:100160009FEF0895FC01918D228D892F90E0805C96
:100170009F4F821B91098F73992708958AE793E017
:100180000E94B20021E0892B09F420E0822F08951B
:10019000FC01848DDF01A80FB11DA35ABF4F2C9124
:1001A000848D90E001968F739927848FA689B789F3
:1001B0002C93A089B1898C9180648C93938D848DCC
:1001C000981306C00288F389E02D80818F7D80839B
:1001D0000895EF92FF920F931F93CF93DF93EC015B
:1001E00081E0888F9B8D8C8D981305C0E889F989F3
:1001F000808185FD24C0F62E0B8D10E00F5F1F4F10
:100200000F731127E02E8C8DE8120CC00FB607FC7F
:10021000FACFE889F989808185FFF5CFCE010E9468
:10022000C800F1CF8B8DFE01E80FF11DE35AFF4F9F
:10023000F0820B8FEA89FB898081806207C0EE899A
:10024000FF896083E889F98980818064808381E007
:1002500090E0DF91CF911F910F91FF90EF90089563
:10026000CF93DF93EC01888D8823C9F0EA89FB895D
:10027000808185FD05C0A889B9898C9186FD0FC054
:100280000FB607FCF5CF808185FFF2CFA889B98929
:100290008C9185FFEDCFCE010E94C800E7CFDF91A2
:1002A000CF91089580E090E0892B29F00E94BE0054
:1002B00081110C94000008953FB7F8948091F602E4
:1002C0009091F702A091F802B091F90226B5A89B8F
:1002D00005C02F3F19F00196A11DB11D3FBFBA2FD8
:1002E000A92F982F8827820F911DA11DB11DBC0138
:1002F000CD0142E0660F771F881F991F4A95D1F7FD
:1003000008958F929F92AF92BF92CF92DF92EF9219
:10031000FF926B017C010E945C014B015C01C114E6
:10032000D104E104F104F1F00E945C01DC01CB0195
:1003300088199909AA09BB09883E9340A105B1050E
:1003400070F321E0C21AD108E108F10888EE880EA6
:1003500083E0981EA11CB11CC114D104E104F10476
:1003600019F7DDCFFF90EF90DF90CF90BF90AF9067
:100370009F908F90089585ED8093BC008091BC0084
:1003800084FDFCCF1092560308954091CC02262F95
:1003900030E0240F311D21323105DCF42091560369
:1003A0002430C9F4FC0180E090E0861758F43091C5
:1003B000CC022191DC01A655BD4FA30FB11D2C939A
:1003C0000196F3CF8091CC02680F6093CC0280E05D
:1003D000089581E0089582E008950895E0910F0363
:1003E00080910E03E81730F4F0E0E05FFC4F80816D
:1003F00090E008958FEF9FEF089590910F03809103
:100400000E03981750F4E92FF0E0E05FFC4F2081D5
:1004100030E09F5F90930F0302C02FEF3FEFC901C1
:10042000089580910E0390E020910F03821B9109A3
:100430000895CF92DF92EF92FF920F931F93CF9385
:10044000DF937C01262F972F8A0180915703882301
:1004500091F0C62FD72F6E01C40ED51ECC15DD0529
:1004600071F06991D701ED91FC910190F081E02D3F
:10047000C7010995F3CF642F822F0E94C501C801DF
:10048000DF91CF911F910F91FF90EF90DF90CF9070
:100490000895CF93DF931F92CDB7DEB76983209184
:1004A00057032223D1F020917903203240F021E03C
:1004B00030E0FC013383228380E090E015C080911E
:1004C0005803E82FF0E0E75AFC4F998190838F5F43
:1004D000809358038093790305C061E0CE010196B3
:1004E0000E94C50181E090E00F90DF91CF910895C7
:1004F0000E948A0C1F920F920FB60F9211242F9315
:100500003F934F935F936F937F938F939F93AF939B
:10051000BF93EF93FF938AE793E00E94C800FF9197
:10052000EF91BF91AF919F918F917F916F915F916B
:100530004F913F912F910F900FBE0F901F901895E4
:100540001F920F920FB60F9211242F938F939F93A8
:10055000EF93FF93E0918A03F0918B038081E09108
:100560009003F091910382FD12C0908180919303DA
:100570008F5F8F7320919403821751F0E091930362
:10058000F0E0E658FC4F958F8093930301C0808183
:10059000FF91EF919F918F912F910F900FBE0F9030
:1005A0001F9018951F920F920FB60F9211242F9340
:1005B0003F938F939F93AF93BF938091F20290915B
:1005C000F302A091F402B091F5023091F10223E020
:1005D000230F2D3720F40196A11DB11D05C026E87B
:1005E000230F0296A11DB11D2093F1028093F20208
:1005F0009093F302A093F402B093F5028091F60277
:100600009091F702A091F802B091F9020196A11D14
:10061000B11D8093F6029093F702A093F802B09375
:10062000F902BF91AF919F918F913F912F910F90C0
:100630000FBE0F901F9018951F920F920FB60F923A
:1006400011242F933F934F935F936F937F938F93D7
:100650009F93AF93BF93EF93FF938091B900887FEF
:10066000803609F49CC068F5883209F45BC090F4C8
:10067000803109F454C038F4882309F4F6C0883076
:1006800009F44DC0F6C0883109F44CC0803209F439
:100690005DC0EFC0803409F468C048F4803309F4C9
:1006A00055C0883309F0E5C080935403D8C0803525
:1006B00009F44FC0883509F45DC0883409F0D9C009
:1006C000D6C0883909F4C7C0A8F4883709F467C0D0
:1006D00038F4883609F463C0803709F460C0C9C0B3
:1006E000883809F4B8C0803909F45FC0803809F04F
:1006F000C0C05BC0803B09F486C038F4803A09F47E
:1007000066C0883A09F47FC0B4C0803C09F4A7C031
:10071000883C09F4A4C0883B09F48AC0AAC080912F
:10072000310310C09091530380915203981770F5D4
:10073000E091530381E08E0F80935303F0E0EE5C71
:10074000FC4F80818093BB0085EC86C0809354036E
:100750008EC0E091530381E08E0F8093530380910C
:10076000BB00F0E0EE5CFC4F8083909153038091DE
:1007700052036EC0E091530381E08E0F80935303C8
:100780008091BB00F0E0EE5CFC4F808380915503CC
:1007900081116DC081E08093300384EA61C083E001
:1007A000809356031092F002CFCF8091F0028032F6
:1007B00008F051C0E091F00281E08E0F8093F002CA
:1007C0008091BB00F0E0E053FD4F8083BDCF85EC0E
:1007D0008093BC00109256038091F002803230F476
:1007E000E091F002F0E0E053FD4F10826091F002E2
:1007F00070E0E091CE02F091CF0280ED92E0099599
:100800001092F00236C084E0809356031092CD021D
:100810001092CC02E091CA02F091CB02099580912E
:10082000CC02811105C081E08093CC021092AA0213
:10083000E091CD0281E08E0F8093CD02F0E0E6558D
:10084000FD4F80818093BB009091CD028091CC02BE
:10085000981708F479CF85E88093BC000AC085EC2E
:100860008093BC001092560304C0109254030E945F
:10087000BB01FF91EF91BF91AF919F918F917F91BC
:100880006F915F914F913F912F910F900FBE0F90FD
:100890001F9018952091790390912304213208F03C
:1008A0004AC0809156038111FCCF32E03093560349
:1008B00031E0309355033FEF3093540310925303CC
:1008C00020935203A9E5B3E042E353E0FA013E2F3F
:1008D000341B321718F43D913193F9CF1092310344
:1008E00020913103990F922B909331039091300313
:1008F000913061F410923003909131039093BB00DA
:100900009091BC0093FDF8CF95EC01C095EE9093CB
:10091000BC00909156039230E1F3909154039F3FB5
:1009200079F080915403803241F0809154038033F8
:1009300031F084E005C081E003C082E001C083E0C3
:100940001092580310927903109257030895CF9292
:10095000DF92EF92FF920F931F93CF93DF936C017F
:100960007A018B01C0E0D0E0CE15DF0589F0D80117
:100970006D918D01D601ED91FC910190F081E02DFA
:10098000C6010995892B11F47E0102C02196ECCF96
:10099000C701DF91CF911F910F91FF90EF90DF90F2
:1009A000CF900895909156039111FCCF813208F0B9
:1009B00080E291E090935603909355032FEF20939C
:1009C000540310925303280F209352039093310342
:1009D000909131039C639093310390913003913057
:1009E00061F410923003909131039093BB00909189
:1009F000BC0093FDF8CF95EC01C095EE9093BC0040
:100A0000909156039130E1F390915303981710F4AD
:100A100080915303A2E3B3E020E133E0F9019E2F7C
:100A2000921B981718F49D919193F9CF10920F0390
:100A300080930E030895009769F0FC010190002057
:100A4000E9F73197AF01481B590BBC018AE793E0E6
:100A50000C94A70480E090E008958F929F92AF924B
:100A6000BF920F931F93CF93DF93CDB7DEB7A197BC
:100A70000FB6F894DEBF0FBECDBF19A2423008F406
:100A80004AE08E010F5D1F4F842E912CA12CB12CBA
:100A9000A50194010E94260AE62FB901CA0101505E
:100AA0001109EA3014F4E05D01C0E95CD801EC936F
:100AB000232B242B252B61F7C8010E941B05A1962F
:100AC0000FB6F894DEBF0FBECDBFDF91CF911F915F
:100AD0000F91BF90AF909F908F900895CF93DF9329
:100AE0000E941B05EC0188E892E00E941B058C0F18
:100AF0009D1FDF91CF910895CF93C1E0C09357031D
:100B00009EE1909323041092580310927903682F6A
:100B100087E194E00E9449020E944A04C09357036F
:100B2000109258031092790381E090E00E94D20461
:100B300090910E0380910F039817F1F387E194E0F1
:100B40000E94FD01C82F0E944A048C2FCF91089566
:100B5000CF93C62F91E0909357039EE19093230487
:100B60001092580310927903682F87E194E00E9455
:100B700049026C2F87E194E00E944902CF910C94C6
:100B80004A0480E00E947C05682F6F7980E00C9415
:100B9000A80580E00E947C05837E682F606180E06C
:100BA0000C94A80582E00E947C05682F6C7F82E08F
:100BB0000C94A805CF9391E0909357039EE19093F6
:100BC00023041092580310927903682F87E194E070
:100BD0000E9449020E944A0481E090E00E94D204EF
:100BE00087E194E00E94FD01C82F0E944A048C2FE7
:100BF000CF91089590E0FC01EA54FF4F2491FC014D
:100C0000EE55FF4F3491FC01E257FF4FE491EE2384
:100C1000B1F1222339F1233091F038F42130A9F0D9
:100C2000223001F584B58F7D12C0273091F0283035
:100C3000A1F02430B9F4809180008F7D03C08091B1
:100C400080008F77809380000DC084B58F7784BD3E
:100C500009C08091B0008F7703C08091B0008F7D74
:100C60008093B000F0E0EE0FFF1FEC57FF4FA5910F
:100C7000B4918FB7F894EC913E2B3C938FBF0895BD
:100C80004F925F926F927F928F929F92AF92BF929C
:100C9000CF92DF92EF92FF926B017C01B42E9B0109
:100CA000AC010E94850C882319F08CE992E027C0E2
:100CB00026013701E89477F82FEF3FEF4FE75FE722
:100CC000C301B2010E94850C81110DC02FEF3FEFCF
:100CD0004FE75FE7C301B2010E94BB0A18161CF47C
:100CE00080EA92E00CC02FEF3FEF4FE75FE4C701CF
:100CF000B6010E94130C181684F484EA92E0FF9067
:100D0000EF90DF90CF90BF90AF909F908F907F90AB
:100D10006F905F904F900C941B052FEF3FEF4FE7C4
:100D20005FECC701B6010E94BB0A87FDE6CF20E059
:100D300030E0A901C701B6010E94BB0A87FF11C0BC
:100D4000E0917A03F0917B030190F081E02D6DE258
:100D50008AE793E009954C01F7FAF094F7F8F094DC
:100D600002C0812C912CA12C60E070E080E09FE318
:100D7000AB1441F020E030E040E251E40E94C00AB0
:100D8000A394F6CF9B01AC01C701B6010E944F0AA4
:100D90002B013C010E94320B6B017C010E94610B14
:100DA0009B01AC01C301B2010E944E0A2B013C0120
:100DB0004AE0C701B6010E942D057C01E80CF91C30
:100DC000BB2031F088EA92E00E941B05E80EF91E74
:100DD000DB2CDD2021F120E030E040E251E4C301D2
:100DE000B2010E94180C2B013C010E94320B4B01F6
:100DF000A12CB12C4AE0C501B4010E942D05E80EDA
:100E0000F91EC501B4010E94610B9B01AC01C30135
:100E1000B2010E944E0A2B013C01DA94DACFC701DD
:100E2000FF90EF90DF90CF90BF90AF909F908F900A
:100E30007F906F905F904F9008950F931F93CF9383
:100E4000DF9311E0109357039EE1909323041092D7
:100E5000580310927903682F87E194E00E944902B9
:100E60000E944A041093570310925803109279037A
:100E700082E090E00E94D20490910E0380910F03D3
:100E80009817F1F387E194E00E94FD01082F87E1B4
:100E900094E00E94FD01182F0E944A04D02F80E0A8
:100EA000C82FCE01812BDF91CF911F910F91089513
:100EB000789484B5826084BD84B5816084BD85B535
:100EC000826085BD85B5816085BD80916E00816041
:100ED00080936E00109281008091810082608093E7
:100EE00081008091810081608093810080918000E9
:100EF0008160809380008091B10084608093B10014
:100F00008091B00081608093B00080917A0084600D
:100F100080937A0080917A00826080937A00809139
:100F20007A00816080937A0080917A008068809353
:100F30007A001092C100E0918A03F0918B0382E065
:100F40008083E0918603F09187031082E09188030B
:100F5000F09189038FEC808310929203E0918E03CD
:100F6000F0918F0386E08083E0918C03F0918D03F4
:100F7000808180618083E0918C03F0918D0380817A
:100F800088608083E0918C03F0918D03808180687C
:100F90008083E0918C03F0918D0380818F7D80832D
:100FA00080E291E00E946E05C1E0D8E415E4109261
:100FB0000F0310920E0310925803109279031092AF
:100FC0005603C09355031092300382E10E94FA0544
:100FD00083E10E94FA058091B9008E7F8093B90069
:100FE0008091B9008D7F8093B900D093B8001093A1
:100FF000BC008AE00E94DA05883459F084E391E06D
:101000000E946E0564EF71E080E090E00E94810133
:10101000CECF8BE00E94DA05843381F78CE00E940A
:10102000DA05833359F78FE1C82E85E8D82E8BE691
:10103000E82E8FE3F82EC092FA02D092FB02E092E3
:10104000FC02F092FD0260E281E00E94A8050E948D
:10105000D2050E94C9050E94C105C092FA02D09231
:10106000FB02E092FC02F092FD0260E281E00E944D
:10107000A8050E94D2050E94C9050E94C1058BE8FF
:1010800092E00E941B0581E00E947C05E82FF0E0C1
:1010900095E0F595E7959A95E1F73197E730F105F9
:1010A00008F485C18AE691E002C082E791E00E94DF
:1010B0006E0581EA91E00E941B0582E00E947C059A
:1010C0008370813031F040F0823049F48DEB91E053
:1010D00008C087EC91E005C08AED91E002C081EF85
:1010E00091E00E946E058BEF91E00E941B0580E06D
:1010F0000E947C058C71E82FF0E0F595E795F59559
:10110000E795E730F105C8F4EC5CFF4F0C94480A12
:1011100080E192E014C088E192E011C08FE192E09A
:101120000EC084E292E00BC08BE292E008C081E343
:1011300092E005C082E192E002C087E392E00E9463
:101140006E0586E492E00E941B0580E00E947C050B
:10115000807690E025E0959587952A95E1F7823095
:10116000910559F08330910559F0019719F083E604
:1011700092E008C085E692E005C087E692E002C0F2
:1011800089E692E00E946E0583E00E941D0720918F
:101190000A0330910B03821B930BBC01990F880B40
:1011A000990B0E94630B6093FE027093FF02809381
:1011B00000039093010387E00E941D0720910C0318
:1011C00030910D03821B930BBC01990F880B990B77
:1011D0000E94630B609302037093030380930403E4
:1011E0009093050385E00E941D07BC01990F880BB1
:1011F000990B0E94630B609306037093070380931F
:101200000803909309038090FE029090FF02A09043
:101210000003B0900103C0900203D0900303E0905C
:101220000403F090050383E00E941D07BC01990FA1
:10123000880B990B0E94630B2B013C0160910A0300
:1012400070910B03072E000C880B990B0E94630B07
:101250009B01AC01C301B2010E944E0A2091FA0227
:101260003091FB024091FC025091FD020E94180C4B
:101270006093FE027093FF0280930003909301033A
:1012800087E00E941D07BC01990F880B990B0E94F3
:10129000630B2B013C0160910C0370910D03072E31
:1012A000000C880B990B0E94630B9B01AC01C301DE
:1012B000B2010E944E0A2091FA023091FB02409145
:1012C000FC025091FD020E94180C6093020370937F
:1012D0000303809304039093050385E00E941D0798
:1012E000BC01990F880B990B0E94630B2091FA02A5
:1012F0003091FB024091FC025091FD020E94180CBB
:101300006093060370930703809308039093090387
:1013100020E030E048E753E4C501B4010E94BB0A75
:10132000181674F020E030E043E753E4C501B4013F
:101330000E94130C87FD04C08BE692E00E946E05AC
:1013400020E030E048E252ECC701B6010E94BB0A3F
:10135000181674F020E030E040E552ECC701B60109
:101360000E94130C87FD04C080E792E00E946E0586
:1013700086E792E00E941B0542E0C501B4010E948D
:1013800040068FE792E00E941B0542E0C701B601CC
:101390000E94400688E892E00E941B0564E670E027
:1013A00080E090E00E9481010E945201EDCEE55C58
:1013B000FF4F0C94480A89E791E079CE80E891E0EC
:1013C00076CE87E891E073CE8CE891E070CE83E929
:1013D00091E06DCE8AE991E06ACEEAE7F3E013820C
:1013E000128288EE93E0A0E0B0E084839583A68328
:1013F000B78324E031E03183208325EC30E035876A
:10140000248724EC30E03787268720EC30E0318BCE
:10141000208B21EC30E0338B228B22EC30E0358BBB
:10142000248B26EC30E0378B268B118E128E138E98
:10143000148EE7E1F4E01382128284839583A683FD
:10144000B78384E191E0918380830895A1E21A2E0D
:10145000AA1BBB1BFD010DC0AA1FBB1FEE1FFF1F58
:10146000A217B307E407F50720F0A21BB30BE40BA8
:10147000F50B661F771F881F991F1A9469F76095EF
:101480007095809590959B01AC01BD01CF010895A9
:10149000EE0FFF1F0590F491E02D09945058BB27E3
:1014A000AA270E94660A0C94D90B0E94CB0B38F035
:1014B0000E94D20B20F039F49F3F19F426F40C94CB
:1014C000C80B0EF4E095E7FB0C94C20BE92F0E94C9
:1014D000EA0B58F3BA17620773078407950720F0E1
:1014E00079F4A6F50C940C0C0EF4E0950B2EBA2FA3
:1014F000A02D0B01B90190010C01CA01A00111241A
:10150000FF27591B99F0593F50F4503E68F11A16C5
:10151000F040A22F232F342F4427585FF3CF469556
:1015200037952795A795F0405395C9F77EF41F1678
:10153000BA0B620B730B840BBAF09150A1F0FF0F42
:10154000BB1F661F771F881FC2F70EC0BA0F621F2E
:10155000731F841F48F4879577956795B795F7951E
:101560009E3F08F0B0CF9395880F08F09927EE0FB3
:101570009795879508950E949E0B08F481E0089541
:101580000E94D40A0C94D90B0E94D20B58F00E94EE
:10159000CB0B40F029F45F3F29F00C94C20B5111A2
:1015A0000C940D0C0C94C80B0E94EA0B68F3992361
:1015B000B1F3552391F3951B550BBB27AA2762174F
:1015C0007307840738F09F5F5F4F220F331F441F5C
:1015D000AA1FA9F335D00E2E3AF0E0E832D0915090
:1015E0005040E695001CCAF72BD0FE2F29D0660F7D
:1015F000771F881FBB1F261737074807AB07B0E8C0
:1016000009F0BB0B802DBF01FF2793585F4F3AF0C5
:101610009E3F510578F00C94C20B0C940D0C5F3F6B
:10162000E4F3983ED4F3869577956795B795F7954B
:101630009F5FC9F7880F911D9695879597F9089533
:10164000E1E0660F771F881FBB1F621773078407CF
:10165000BA0720F0621B730B840BBA0BEE1F88F7DE
:10166000E09508950E94F20B88F09F5798F0B92FEB
:101670009927B751B0F0E1F0660F771F881F991FC7
:101680001AF0BA95C9F714C0B13091F00E940C0C51
:10169000B1E008950C940C0C672F782F8827B85F61
:1016A00039F0B93FCCF3869577956795B395D9F71F
:1016B0003EF490958095709561957F4F8F4F9F4F29
:1016C0000895E89409C097FB3EF490958095709535
:1016D00061957F4F8F4F9F4F9923A9F0F92F96E97E
:1016E000BB279395F695879577956795B795F111F3
:1016F000F8CFFAF4BB0F11F460FF1BC06F5F7F4F90
:101700008F4F9F4F16C0882311F096E911C07723A1
:1017100021F09EE8872F762F05C0662371F096E8AA
:10172000862F70E060E02AF09A95660F771F881F79
:10173000DAF7880F9695879597F90895990F00081D
:10174000550FAA0BE0E8FEEF16161706E807F90793
:10175000C0F012161306E407F50798F0621B730B2E
:10176000840B950B39F40A2661F0232B242B252BAF
:1017700021F408950A2609F4A140A6958FEF811D52
:10178000811D089597F99F6780E870E060E00895F3
:101790009FEF80EC089500240A9416161706180689
:1017A0000906089500240A94121613061406050665
:1017B0000895092E0394000C11F4882352F0BB0FF6
:1017C00040F4BF2B11F460FF04C06F5F7F4F8F4F59
:1017D0009F4F089557FD9058440F551F59F05F3F94
:1017E00071F04795880F97FB991F61F09F3F79F043
:1017F00087950895121613061406551FF2CF4695C5
:10180000F1DF08C0161617061806991FF1CF869546
:101810007105610508940895E894BB27662777272A
:10182000CB0197F908950E949E0B08F48FEF08955D
:101830000E942B0C0C94D90B0E94CB0B38F00E9409
:10184000D20B20F0952311F00C94C20B0C94C80B12
:1018500011240C940D0C0E94EA0B70F3959FC1F3B8
:10186000950F50E0551F629FF001729FBB27F00D4E
:10187000B11D639FAA27F00DB11DAA1F649F6627A3
:10188000B00DA11D661F829F2227B00DA11D621FF2
:10189000739FB00DA11D621F839FA00D611D221FAC
:1018A000749F3327A00D611D231F849F600D211D90
:1018B000822F762F6A2F11249F5750409AF0F1F013
:1018C00088234AF0EE0FFF1FBB1F661F771F881F7C
:1018D00091505040A9F79E3F510580F00C94C20BE7
:1018E0000C940D0C5F3FE4F3983ED4F38695779506
:1018F0006795B795F795E7959F5FC1F7FE2B880F22
:10190000911D9695879597F908950E949E0B880BD7
:10191000990B089581E090E0F8940C948F0CF89462
:02192000FFCFF7
:1019220000000000E900A704B2009000A40030010A
:1019320000000000490219021102FD01EE01ED0151
:10194200496E697469616C697A6520484D4335381E
:1019520038334C00436F756C64206E6F7420666977
:101962006E6420612076616C696420484D4335388D
:1019720038334C2073656E736F722C206368656315
:101982006B20776972696E672100302E38382047E4
:101992006100312E3320476100312E39204761002A
:1019A200322E35204761003420476100342E372023
:1019B200476100352E3620476100382E31204761BD
:1019C2000053656C6563746564204D65617375725F
:1019D200656D656E74204D6F64653A200049646CD4
:1019E20065206D6F64650053696E676C652D4D658A
:1019F20061737572656D656E7400436F6E74696EA6
:101A0200756F75732D4D6561737572656D656E7455
:101A120000426164206D6F6465210053656C6563EB
:101A2200746564204461746120526174653A2000D7
:101A3200302E373520487A00312E3520487A00334F
:101A420020487A00372E3520487A00313520487AEE
:101A520000333020487A004261642064617461205E
:101A620072617465210053656C6563746564206EF0
:101A7200756D626572206F662073616D706C65733F
:101A82003A2000310032003400380078206F6B00B9
:101A92005920206F6B002058726177203D20002072
:101AA20059726177203D20000D0A0053656C656311
:101AB2007465642072616E67653A20006E616E0023
:0A1AC200696E66006F7666002E0064
:00000001FF
